:1000000019C08EC083C031C030C02FC02EC02DC0DB
:100010002CC02BC02AC029C028C027C08BC025C037
:1000200024C023C039C021C020C01FC01EC01DC0B5
:100030001CC01BC011241FBECFEFD4E0DEBFCDBF5C
:1000400011E0A0E0B1E0EAE8F1E002C005900D9215
:10005000A230B107D9F721E0A2E0B1E001C01D92C2
:10006000A133B207E1F779D08EC0CACF82E0809386
:10007000C000E1ECF0E0108286E08093C2001092B4
:10008000C50087E68093C40088E98083089580E3F3
:1000900087B91AB814B808951F920F920FB60F922D
:1000A00011242F933F934F938F939F93EF93FF933D
:1000B0002091040130910501C90101969093050139
:1000C000809304014091C600F901E75FFE4F408331
:1000D000FC01E75FFE4F20812D3061F49093030116
:1000E000809302011092010110920001109205010B
:1000F00010920401FF91EF919F918F914F913F9149
:100100002F910F900FBE0F901F9018951F920F9276
:100110000FB60F9211240F900FBE0F901F901895DD
:100120001F920F920FB60F9211240F900FBE0F90D7
:100130001F9018951F920F920FB60F9211240F90D7
:100140000FBE0F901F90189582E084BD95E095BD7D
:100150009FEF97BD80936E00089599DF87DFF4DFEE
:1001600078942091000130910101121613060CF0D1
:10017000FFCF8091060190910701019690930701AE
:0A01800080930601F2CFF894FFCF40
:02018A00FFFF75
:00000001FF
