:1000000019C08BC080C031C030C02FC02EC02DC0E1
:100010002CC02BC02AC029C028C027C088C025C03A
:1000200024C023C03CC021C020C01FC01EC01DC0B2
:100030001CC01BC011241FBECFEFD4E0DEBFCDBF5C
:1000400011E0A0E0B1E0E6E0F3E002C005900D921F
:10005000A230B107D9F721E0A2E0B1E001C01D92C2
:10006000A833B207E1F712D14CC1CACF82E0809326
:10007000C000E1ECF0E0108286E08093C2001092B4
:10008000C5008FEC8093C40088E98083089580E3E5
:1000900087B984E08AB914B881E08BB908951F92BA
:1000A0000F920FB60F9211242F933F938F939F932C
:1000B000EF93FF9380910701909108019C012F5FBE
:1000C0003F4F30930801209307012091C600FC01A7
:1000D000E05FFE4F20832C3E59F4909306018093FD
:1000E0000501109208011092070181E0809302013E
:1000F000FF91EF919F918F913F912F910F900FBEA4
:100100000F901F9018951F920F920FB60F92112407
:100110000F900FBE0F901F9018951F920F920FB661
:100120000F9211240F900FBE0F901F9018951F92E1
:100130000F920FB60F9211242F933F938F939F939B
:1001400080910B0190910C0199233CF08FEF9FEF70
:1001500090930C0180930B0104C010920C0110923B
:100160000B018091090190910A019C012F5F3F4F83
:1001700030930A0120930901809754F18091030183
:1001800090910401892B39F481E090E0909304016F
:100190008093030104C01092040110920301809126
:1001A00000019091010199237CF001968430910522
:1001B0002CF4909301018093000106C08FEF9FEF14
:1001C000909301018093000110920A01109209019D
:1001D0009F918F913F912F910F900FBE0F901F9085
:1001E000189582E084BD95E095BD9FEF97BD809303
:1001F0006E000895449A4AE14A95F1F700C0459A85
:100200009AE19A95F1F700C044984AE14A95F1F7CE
:1002100000C045989AE19A95F1F700C020E030E0DF
:1002200090E0AC01022E02C0559547950A94E2F782
:1002300040FF02C0449A01C044984AE14A95F1F750
:1002400000C0459A4AE14A95F1F700C045984AE155
:100250004A95F1F700C02F5F3F4F2830310509F76D
:100260008AE18A95F1F700C0459A9AE19A95F1F7EB
:1002700000C0449A4AE14A95F1F700C0089583B15D
:100280008170089583B186958170089500DFEEDE58
:10029000A8DF7894449A459A289A299A10920101E5
:1002A000109200012FEF84E39CE0215080409040A9
:1002B000E1F700C00000809102018130C1F4DFDF6E
:1002C0008111FDCFDFDF8111FACF10920101109271
:1002D0000001E0910501F0910601E15FFE4F808190
:1002E00089DF10920201109206011092050180919F
:1002F0000D0190910E01019690930E0180930D01D6
:06030000DACFF894FFCFF4
:02030600FFFFF7
:00000001FF
