:1000000019C0D6C5CBC531C030C02FC02EC02DC041
:100010002CC02BC02AC029C028C027C0E5CB25C0D2
:1000200024C023C08DC521C020C01FC01EC01DC05C
:100030001CC01BC011241FBECFEFD4E0DEBFCDBF5C
:1000400011E0A0E0B1E0E4E4FBE102C005900D9214
:10005000A83AB107D9F723E0A8EAB1E001C01D92A0
:10006000A03BB207E1F7E2DB6BCDCACFCF93C82F3D
:1000700081E090E085DC8C2F806854DC5CDCC82F4C
:1000800081E090E081DC8C2FCF910895CF93DF93B6
:10009000D82FC62F81E090E073DC8D2F43DC8C2FAE
:1000A00041DC81E090E070DCDF91CF910895109207
:1000B000AD011092AC011092AB011092AA0129DCA3
:1000C00087B1837F87B9ECE6F0E08081846080832C
:1000D00080818860808381E090E052DC81E090E064
:1000E00053DC81E090E04CDC81E090E04DDC8FEC73
:1000F00097E00197F1F700C0000081E090E040DC5C
:1001000047DC892BE9F780E30DDC42DC892BE9F73A
:1001100081E090E039DC8FEC97E00197F1F700C0C7
:10012000000060E18DE0B2DF66E68EE0AFDF67E001
:100130008FE0ACDF0895CF93C82F81E090E020DC02
:1001400027DC892BE9F78C2FEDDBC82F81E090E0CD
:100150001BDC8C2FCF9108950F931F93CF93DF93C8
:10016000EC018B0181E090E00BDC8FE7DBDBB80179
:10017000CE01E4DB81E090E007DCDF91CF911F91BD
:100180000F9108950F931F93CF93DF93EC018B0191
:1001900081E090E0F5DB8FEFC5DBB801CE01E0DB5D
:1001A00081E090E0F1DBDF91CF911F910F910895F5
:1001B000806C5CDF08958DE3BEDF82958F70877061
:1001C000863019F0873021F006C08AE3B4DF05C01D
:1001D0008BE3B1DF02C086E3AEDF8DE3ACDF829557
:1001E0008F708770D1F70895E6DF83E3A4DF8DE396
:1001F000A2DF82958F708770D1F708950F931F93B8
:10020000CF93DF93C1E0D1E005E111E0FE0131972A
:10021000688180813BDF2296C017D107B9F7DF9153
:10022000CF911F910F910895CF93C82FE7DFC13071
:1002300011F46CE001C064E087E028DFCF910895FD
:100240000F931F93CF93DF9381E090E099DB8EE7CC
:1002500069DBC4E1D1E00CE111E0899163DBC017F7
:10026000D107D9F781E090E08FDBDF91CF911F912B
:100270000F9108951092B90080E28093B80008951C
:1002800085E6ECEBF0E008C0A3EFB1E01197F1F7E1
:1002900000C00000815019F090819923ACF70895B7
:1002A0008093BB0084E88093BC00EADF8091B900B2
:1002B000887F883231F08FE19EE40197F1F700C02A
:1002C00000000895CF93C82F84EA8093BC00D8DF44
:1002D0009091B900987F983041F0903131F08FE1E2
:1002E0009EE40197F1F700C00000C093BB0084E8D2
:1002F0008093BC00C5DF8091B900887F883141F0D0
:10030000803431F08FE19EE40197F1F700C00000E6
:10031000CF91089584E98093BC0085EF91E0ECEBE8
:10032000F0E009C0AFECB7E01197F1F700C00000B2
:100330000197009719F0208124FFF4CF0895CF93FF
:10034000DF93D82FC62F84E6BDDF8D2F8295807F67
:10035000A7DF8C2FA5DFDEDFDF91CF910895E0ECE2
:10036000F0E0908195FFFDCF8093C60008950F9334
:100370001F93CF93DF93EC0100E010E08881EFDF63
:1003800089918D3039F0882329F00F5F1F4F023398
:100390001105A1F7DF91CF911F910F91089590ED75
:1003A000980F9A3060F09FEB980F963010F48753B7
:1003B00008959FE9980F963020F487550895892F66
:1003C00008958FEF08951F93CF93DF93EC018881F9
:1003D000E6DF182F8981E3DF90E1199F9001112456
:1003E000822BDF91CF911F910895FC018081805372
:1003F0008A3008F08FEF880F982F990F990F890F87
:10040000918190539A3008F09FEF890F90E0089502
:100410008F708A3010F4805D0895895A08951F9373
:10042000CF93DF93182FEB0182958F70F1DF8883D4
:10043000812F8F70EDDF8983DF91CF911F91089518
:10044000F999FECF5EDB0895F999FECF4ADB089556
:100450001816190664F550E0E0E0289A16161706FB
:100460000CF54E2FAFE1BEE41197F1F700C000008C
:100470004F5F242F30E026173707A4F315C0AFE1F4
:10048000BEE41197F1F700C000004F5F242F30E069
:1004900026173707A4F35F5F252F30E028173907A9
:1004A000E4F208952898F7CF28984E2FE8CF0895C2
:1004B00082E08093C000E1ECF0E0108286E080935F
:1004C000C2001092C50087E68093C40088E980834B
:1004D000089517B81AB88DE084B983E488B987EF16
:1004E0008BB981E085B9E9E6F0E080818E7F808379
:1004F00080818D7F808380818B7F80838081877FD7
:100500008083089594E890937A00606C8F70682BD4
:1005100060937C0094E0EAE7F0E08081806480836F
:10052000808184FFFDCF8081806180839150A9F715
:10053000EAE7F0E0808180648083808184FFFDCFE2
:10054000EAE7F0E0808180618083209178008091EB
:10055000790090E0880F991F880F991F34E030834D
:100560002295269526952370822B089524DE4298A5
:100570006FEB8AE28BDD60E882E088DD08956FE34F
:1005800082E084DD6FE78AE281DD0895CF93DF9317
:100590004298ECDFCEE7D0E088818460888360E217
:1005A00082E0B0DF9093E0028093DF0288818B7F4E
:1005B0008883E5DF429A8091DF029091E002DF912B
:1005C000CF910895AF92BF92CF92DF92EF92FF92B8
:1005D0000F931F93CF93DF9300D000D000D0CDB7FF
:1005E000DEB78C01209138013091390140913A01F8
:1005F00029833A834B830F2EF7E0CF2EF0E0DF2ED6
:10060000F02DE12CF12CAE2CBF2C44E050E0B601D3
:1006100086ED91E019DF2091D6013091D70140910C
:10062000D8012C833D834E8346E050E0B801CE01D3
:100630000196F7D9892B71F08FEFE81AF80A84E058
:10064000C80ED11C84E6E816F104E9F6AA24AA949F
:10065000BB24BA948A2D9B2D26960FB6F894DEBF44
:100660000FBECDBFDF91CF911F910F91FF90EF9003
:10067000DF90CF90BF90AF90089549B139B189B163
:1006800059B126B196B15695569550718695869575
:100690008072852B440F440F4078842B330F330F27
:1006A0003074832B220F220F2870822B990F990F01
:1006B0009470892B0895CF934CE151E020E030E015
:1006C000FA01B901332314F46F5F7F4FDB01B59555
:1006D000A795A80FB91FC281C95FCF700190F081A3
:1006E000E02D3796BF0162957295707F7627607F07
:1006F00076276C2B6C932E5F3F4F4C5F5F4F2E30F5
:100700003105F1F6CF910895CF93DF93ECE1F1E05D
:10071000DC0128E331E0ED018D9182958F7090E04E
:1007200007979183808388818F7090E007979383E8
:1007300082833496E217F30771F7F999FECF4CE103
:1007400050E067E971E08CE191E0E3D9DF91CF916E
:100750000895CF93DF93EC0186E0EFEDF1E0DE0149
:10076000119601900D928A95E1F72FEF3FEF4FEF31
:100770002F83388749878091E6018A879091E80125
:100780009F3B10F481608A878091B201813069F4C7
:100790008091B701813021F48A8582608A8703C005
:1007A0008A858D7F8A871092B2018091B5018B87EF
:1007B0008091E8018C8781E09091B601911101C090
:1007C00080E08E871D869FE09F878823E1F081E28D
:1007D00088838091DF029091E0029A8B8B8B80E07E
:1007E00090E02EDE8C8B81E090E02ADE8D8B85E020
:1007F00090E026DE8E8B86E090E022DE8F8BCE01AD
:100800004A9659DF02C082E18883DF91CF91089533
:100810001F93CF93DF93EC01162F82E0860F88831E
:1008200061E070E0CE0198DC612F70E06E5F7F4F79
:10083000CE0192DCDF91CF911F9108950F931F930A
:10084000CF93DF931F92CDB7DEB78C0161E070E0EC
:10085000CE01019697DC698170E0C80193DC80913C
:10086000DE01882359F061E070E08DE092E08ADCDF
:1008700061E070E08EE092E085DC0AC061E070E04B
:1008800084EB91E07FDC61E070E083EB91E07ADC67
:10089000898182500F90DF91CF911F910F91089520
:1008A000ECDE90E080959095082E892F000C881F33
:1008B000990B000C881F991F837008950F931F9345
:1008C000CF93DF93CDB7DEB72A970FB6F894DEBF8C
:1008D0000FBECDBFE5DF90E09C838B832B813C81F5
:1008E0004FE3429FC001439F900D112484509749CC
:1008F0009A83898381E090E0A3DD803851F40981F7
:100900001A8180E090E09CDD081B11091A8309839D
:1009100009C080E090E094DD29813A81280F311DE3
:100920003A83298333DE9A87898786E090E088DDE1
:10093000803851F409851A8585E090E081DD081B37
:1009400011091A87098709C085E090E079DD2985BA
:100950003A85280F311D3A87298729853A8589E309
:1009600093E0821B930B9E838D832D813E81ABEAA6
:10097000BAEA33D89C013695279536952795369552
:1009800027958DE090E0821B930B98878F838D8154
:100990009E8199232CF48DE090E098878F8307C087
:1009A0008D819E81883A910510F018861F828F8173
:1009B000988580933502EF81F88529813A81EE0F81
:1009C000FF1FE45EFE4F80819181820F931F9A8307
:1009D000898360E18DE05ADB89819A81692F8EE0FD
:1009E00055DB69817A818FE051DB2A960FB6F89446
:1009F000DEBF0FBECDBFDF91CF911F910F91089544
:100A00003299FECF08955ADF87E130DB8C7F682F63
:100A1000626087E13BDB82E129DB682F677F82E14F
:100A200035DB63E381E132DB82E120DB8F78682F05
:100A3000606382E12BDB60E182E228DB60E382E03D
:100A400025DBB9DBD1DB8BE376DB6EE082E01EDBFE
:100A5000D7DF85E370DB08950F931F93CF93DF9368
:100A6000EC01162F042F81E0DFDB28DF6EE082E04F
:100A70000DDBA1DB8AE35FDBB7DB84E35CDB8FE0CC
:100A800097E20197F1F700C00000329B0CC093DBA6
:100A90009FEB22EC84E0915020408040E1F700C0C1
:100AA00000000023C1F080E0BFDB08DF84DB9CDBBB
:100AB000612FCE01ADDE60E087E1E8DA69E082E037
:100AC000E5DA66E082E0E2DA85E335DB329BFECFF1
:100AD0003299FECF02C080E001C081E0DF91CF916A
:100AE0001F910F910895CF93DF93EC0181E09CDB80
:100AF000E5DE66E082E0CADA5EDB8AE31CDB74DBFB
:100B000084E319DB83E308C0EFECF7E03197F1F7FA
:100B100000C00000815061F0329BF6CF3299FECFC9
:100B200083E346DB88231CF4CE0188DE01C080E02D
:100B3000DF91CF910895E89860E08EE000DC0895A1
:100B40001F920F920FB60F9211248F939F93EF93E2
:100B5000FF938091C6008093C401E091B80191E0B9
:100B60009E0F9093B801F0E0E45BFC4F80838D30E2
:100B700061F49093BB018091AE019091AF01892BFC
:100B800011F41092EA011092B801FF91EF919F9138
:100B90008F910F900FBE0F901F9018951F920F927C
:100BA0000FB60F9211240F900FBE0F901F90189543
:100BB0001F920F920FB60F9211240F900FBE0F903D
:100BC0001F9018958091380190913901A0913A01B8
:100BD0008093DF019093E001A093E10143E050E0B6
:100BE00062E070E082EE91E02FDC47DD809580933B
:100BF000F1018695869583708093DE010895C8E1A2
:100C0000DADA2FEF8DE399E4215080409040E1F74C
:100C100000C0000080E008DB62E288E037DA4EDEE8
:100C2000CADAE2DA85E387DA0FB6F894C093600097
:100C3000109260000FBE2FEF8DE399E421508040A9
:100C40009040E1F700C00000DBCF0F931F93CF93DC
:100C5000DF938C01FB01DC0112962D913C911397DF
:100C6000243131050CF040C08D919C91820F931F6F
:100C700064E170E09FD64481DC01AA0FBB1FAA0F7C
:100C8000BB1FAA0FBB1FA00FB11F14964C93149744
:100C9000458115964C931597468116964C93169759
:100CA000428517964C93179743850196880F991F95
:100CB000880F991F880F991F800F911FEC0148839F
:100CC000848519968C9319978091B4011A968C9308
:100CD0001A9780891B968C932F5F3F4FF8013383BF
:100CE000228381E090E002C080E090E0DF91CF912C
:100CF0001F910F910895CF93DF93EC018A819B811F
:100D0000181619060CF5E881F981EE0FFF1FEE0F9A
:100D1000FF1FEE0FFF1FEC0FFD1F349688E0DB0175
:100D200001900D928A95E1F788819981019664E19D
:100D300070E040D6998388838A819B8101979B8349
:100D40008A8381E090E002C080E090E0DF91CF9163
:100D500008951CDC8DEF91E0FCDC40E061E28DEF5A
:100D600091E07ADE813009F05BC060E08DEF91E0C8
:100D7000BADE282F30E0121613060CF053C0809311
:100D8000DA022132310509F047C080910B0283302D
:100D900009F042C020910F0290911002809111023F
:100DA00020934703909348038093490330911302A3
:100DB000309345033091140230934603309115026D
:100DC00030934A033091160230934B032093E20193
:100DD0009093E3018093E401209301029093020237
:100DE00080930302F999FECF47E050E060E070E0A5
:100DF00085E493E08ED687E192E086DC8CED91E08D
:100E000002DE2FEF81E19AE7215080409040E1F728
:100E100000C0000081E008951092FD0180E0089577
:100E200080E0089580E00895C4E1D1E010EC809165
:100E3000B601813031F464E670E081E090E008DBD7
:100E4000F6CF62E370E085E090E002DB1883F8D92A
:100E500080DFEDCFCF93DF9300D01F92CDB7DEB709
:100E600047E050E060E070E085E493E0EDDA40E1D7
:100E700050E066EB71E085E292E0E6DA80914503AE
:100E800081508E3F08F1E6E4F3E081E091919150CA
:100E90009E3F20F08F5F8530C9F702C08530A1F4F6
:100EA00084E28093450380E88093460398E1909321
:100EB0004A0380934B03F999FECF47E050E060E08E
:100EC00070E085E493E025D64CE150E067E971E0FD
:100ED0008CE191E0B9DA80911C0181508E3FF8F0ED
:100EE000EDE1F1E081E0919191509E3F20F08F5F24
:100EF0008C31C9F714C0853091F4F999FECF4CE1DB
:100F000050E067E971E08CE891E003D68CE1ECE811
:100F1000F1E0ACE1B1E001900D928A95E1F743E098
:100F200050E063EB71E0CE0101968EDA89819FEF8C
:100F3000980F9E3F40F4809338018A818093390155
:100F40008B8180933A010F900F900F90DF91CF919A
:100F50000895CEEDD1E036DE888181111BC06AE0B4
:100F600070E082E390E074DACEEDD1E02BDE888190
:100F7000833031F465E070E082E390E069DA3FDECF
:100F80002FEF83ED90E3215080409040E1F700C0C7
:100F90000000ECCF2FEF83ED90E321508040904094
:100FA000E1F700C00000D7CF1F93CF93DF93EC0190
:100FB00087E78093880382E78093890310E2109388
:100FC0008A0385E680938B038DE680938C0387E606
:100FD00080938D0310938E036FE873E088811FDA8E
:100FE00061E973E089811BDA63E973E08A8117DACA
:100FF0001093950366E973E08B8111DA10939803DF
:1010000069E973E08C810BDA10939B036CE973E060
:101010008D8105DA10939E036FE973E08E81FFD90D
:101020001093A10362EA73E08F81F9D98DE0809378
:10103000A4031092A50388E893E099D9DF91CF919A
:101040001F9108952F923F924F925F926F927F92DD
:101050008F929F92AF92BF92CF92DF92EF92FF92C8
:101060000F931F93CF93DF93812C912CC0E0D0E09E
:101070000AEE11E0412C512C0F2EF9E8AF2EF3E0CF
:10108000BF2EF02D0F2EF5EE2F2EF2E03F2EF02D7D
:101090003401A895F8018081823039F0833009F459
:1010A000B7C0813009F083C1D5C061E08DEF91E018
:1010B0001ADDF82E882E912C181419040CF099C002
:1010C000C301880F991F880F991F865F9F4FB8D95A
:1010D000EAE0F2E08083E2EEF1E0208131814281BA
:1010E000E4E0F2E02083318342838091B6018111F4
:1010F0001AC08EEF91E066DA3C0199230CF479C0B6
:10110000F0E2FF1528F06DEF71E086E392E09DDDDF
:1011100040E062E18DEF91E09FDC65E070E084E00B
:1011200090E096D966C08330D1F4EBE0F2E08083A2
:101130008FE0E7ECF1E0AFE0B2E001900D928A952C
:10114000E1F740E061E28DEF91E086DC813009F06B
:1011500050C08093B6018BE391E009D94AC087E77C
:10116000FED882E7FCD880E2FAD884E6F8D885E792
:10117000F6D88DE6F4D880E7F2D880E2F0D80F2ECA
:10118000FDEFCF2EF1E0DF2EF02DE42CF52CC60183
:101190006E01EC0168E873E0899141D98091880380
:1011A000DED8F5018081DBD8FFEFEF1AFF0AE814E3
:1011B000F90484F3E60168E873E08091B4012FD963
:1011C0000F2EF8E8EF2EF3E0FF2EF02DF7018081CF
:1011D000C6D8F5018081C3D8B7018091B3011FD96A
:1011E000F7018081BCD8F5018081B9D88DE0B7D8EE
:1011F000DEC0F8018081882309F4DDC0C630D10546
:101200002CF083E08083C42DD52D43CF219641CF90
:101210008091AE019091AF01892BC1F46CEB71E02C
:1012200086E392E068DD892B69F081E0F801808334
:101230008091AE019091AF0101969093AF018093A0
:10124000AE01B5C082E0F801808323CF81E0F801D0
:1012500080831FCF8091B0019091B101892B21F043
:1012600082E0F801808315CF82E490E09093B10191
:101270008093B0018CEB91E097DE80E6F101119252
:101280008A95E9F766E771E08CE493E0C6D3909322
:10129000DB018093DA01009709F46CC07101682FBB
:1012A000792FC42DD52DC701D4D366E771E0842DE5
:1012B000952DB3D39093DB018093DA012196E0E181
:1012C000EE0EF11C009719F0682F792FECCF2097C4
:1012D00009F452C062E471E0C101C2D3892B09F460
:1012E0004BC0E5EFF2E08081811108C083E0F80196
:1012F00080834092AE015092AF0159C085E093E0E7
:1013000062D8F82E87E093E05ED8E82E89E093E07B
:101310005AD89091BC01F9120AC0EDEBF1E090812E
:10132000E91205C0EEEBF1E090818917D9F08091C8
:10133000AE019091AF010B9744F083E0F8018083F8
:101340004092AE015092AF0132C082E0F80180833A
:101350008091AE019091AF0101969093AF0180937F
:10136000AE0125C083E0F80180834092AE01509227
:10137000AF011DC0C42DD52D8091AE019091AF015C
:101380008B30910544F083E0F80180834092AE01F8
:101390005092AF010CC001969093AF018093AE01C3
:1013A000F8018081882339F082E0808372CEF801D1
:1013B000808181116ECEDF91CF911F910F91FF90AF
:1013C000EF90DF90CF90BF90AF909F908F907F90E5
:1013D0006F905F904F903F902F900895CF93DF9341
:1013E00000D01F92CDB7DEB70F2EFAEECF2EF1E070
:1013F000DF2EF02D0F2EF5EEAF2EF2E0BF2EF02DEA
:10140000612C712C0F2EF6E64F2E512CF02D0F2E45
:10141000F5E28F2EF2E09F2EF02D0F2EF5E42F2E09
:10142000F3E03F2EF02D8CED91E00CDED6018C9197
:101430008111F9CF80E6F50111928A95E9F766E707
:1014400071E08CE493E0E9D29093DB018093DA01C0
:10145000009709F4BEC18501682F792FE62CF72C7F
:10146000C801F7D266E771E0862D972DD6D290930A
:10147000DB018093DA01FFEFEF1AFF0A005F1F4FD5
:10148000009719F0682F792FEBCFEF2809F4A1C14D
:1014900065E471E0C501E4D2892B09F445C06EE42E
:1014A00071E085EF92E0DCD2892B09F492C185E0EE
:1014B00093E09BD78C018436910508F08AC185E1C1
:1014C00093E081D78093D60187E193E07CD7809326
:1014D000D70189E193E077D78093D80185E293E043
:1014E00072D78093D901000F111F000F111F095FE0
:1014F0001F4F44E050E0B8018BED92E0A5D744E0E7
:1015000050E06BED72E086ED91E08BD2892B41F0DB
:10151000F999FECF44E050E0B80186ED91E0F9D2B0
:101520008EE391E024D755C168E471E0C50198D2FB
:10153000892B09F44EC06EE471E085EF92E090D201
:10154000892B09F446C185E093E04FD78436910595
:1015500008F03FC1880F991F880F991FBC01695F70
:101560007F4F44E050E08BED92E06ED782E78093AE
:10157000880384E68093890310E210938A0385E64A
:1015800080938B038EE680938C0386E780938D0394
:1015900010938E036FE873E08091DB0240D761E91E
:1015A00073E08091DC023BD763E973E08091DD0258
:1015B00036D71093950366E973E08091DE022FD74A
:1015C0008DE0809398031092990388E893E0CFD63A
:1015D00000C16BE471E0C50143D2892B09F4ADC0B1
:1015E00062E571E085EF92E03BD2892B79F088E1EA
:1015F0000FB6F89480936000109260000FBE81E0F7
:101600008093B6018EE391E0B2D6E3C069E571E064
:1016100085EF92E025D2892B09F452C085E093E052
:10162000D2D68093C70187E093E0CDD68093C801DE
:1016300089E093E0C8D68093C90185E193E0C3D6E1
:101640008093CA0185E293E0BED68093CB0187E206
:1016500093E0B9D68093CC0189E293E0B4D680932D
:10166000CD018BE293E0AFD68093CE0185E393E08A
:10167000AAD68093CF0187E393E0A5D68093D001CB
:1016800089E393E0A0D68093D1018BE393E09BD6CE
:101690008093D2018DE393E096D68093D3018FE3BC
:1016A00093E091D68093D40181E493E08CD680932B
:1016B000D50183E08093B6018EE391E058D689C0CE
:1016C0006FE571E085EF92E0CBD1892B99F185E050
:1016D00093E079D6A7E4B3E08C9387E093E073D6E8
:1016E000E8E4F3E0808389E093E06DD6A9E4B3E019
:1016F0008C9385E293E067D6F101808387E293E0E3
:1017000062D6A6E4B3E08C9389E293E05CD6809342
:101710004A038BE293E057D680934B03F999FECFAF
:1017200047E050E060E070E0C101F3D18EE391E06A
:101730001ED64FC01092B6014CC064E671E0C501E0
:101740008FD1892B09F445C0F201108169E670E060
:1017500085EF92E073D1892B41F0D4018C918F5F9A
:101760008C938BE691E003D607C0F4018081815011
:1017700080838EE691E0FBD5D4018C91811749F1ED
:10178000F2018083F999FECF41E050E066EB71E011
:10179000C401BFD181E791E0EAD5BE016F5F7F4F01
:1017A000A8E2B2E08C913BD61DE01B83CE010196EE
:1017B000DED588E791E0DBD5F2018081BE016F5F65
:1017C0007F4F2DD61B83CE010196D1D583E891E0C2
:1017D000CED58CE3ECE4F3E0DF011D928A95E9F7C6
:1017E00083E0F60180831FCE1F920F920FB60F92F7
:1017F00011248F939F938091B0019091B101009734
:1018000029F001979093B1018093B0019F918F913E
:101810000F900FBE0F901F90189582E084BD95E049
:1018200095BD9FEF97BD80936E00089552D640D628
:1018300021D510DBC7D98091DE01811101C0EDDF18
:1018400036D4DCD480EC80931401FAD46AE070E0E2
:1018500082E090E0FDD58091DE018D7F81F428E269
:1018600088E190E00FB6F894A895809360000FBED1
:1018700020936000E0E6F0E08081806480837894CB
:1018800080912602813069F4809127028F3069F4BB
:1018900080912902811109C080912A02811105C01D
:1018A0001BC0809166008093250281E08093260210
:1018B0008FE0809327021092290280916600809326
:1018C000280210922A02F999FECF40E150E066EB1F
:1018D00071E085E292E01DD18091DE01811104C0AA
:1018E000809125028093660057D08091DE018D7F24
:1018F00009F421D98091DE01813009F42ADB83309B
:1019000021F482E08093B6018FDA83E08093EA01CC
:1019100065DD84B1886284B924982B9880E58CBDFC
:101920002A9A08958EBD0DB407FEFDCF0DB407FEB3
:10193000FDCF8EB5089580E0F5DF0895611571053E
:1019400069F0FC01680F791F81918EBD0DB407FE0F
:10195000FDCF8EB5E617F707B9F7089580E0089533
:101960006115710561F0FC01860F971F1EBC0DB457
:1019700007FEFDCF2EB52193E817F907B9F70895B3
:10198000019709F42A980895019709F42A9A08956D
:1019900083B1847090E00895BCDF2A98229A409A1F
:1019A000419A429A439A449A459A87EF8BB910928A
:1019B000B901089597FB072E16F4009406D077FD21
:1019C00008D017D007FC05D03EF4909581959F4F25
:1019D0000895709561957F4F0895A29FB001B39FC0
:1019E000C001A39F01D0B29F700D811D1124911DD4
:1019F0000895AA1BBB1B51E107C0AA1FBB1FA61756
:101A0000B70710F0A61BB70B881F991F5A95A9F7A7
:101A100080959095BC01CD01089548EA51E03AD0F7
:101A20000895FB01DC0104C08D910190801921F41F
:101A300041505040C8F7881B990B0895FC018191D3
:101A4000861721F08823D9F7992708953197CF0178
:101A50000895FB01DC0101900D920020E1F708954B
:101A6000FB0151915523A9F0BF01DC014D914517B0
:101A70004111E1F759F4CD010190002049F04D9159
:101A800040154111C9F3FB014111EFCF81E090E016
:101A900001970895FA01A191B081009719F4109768
:101AA000E1F0CD01DC01CD010D90002011F4C00169
:101AB00013C0FB012191222319F02015D9F7F3CF90
:101AC000FB012191201519F41E92119606C02223C4
:101AD000C1F70D900020A1F7D001FA01A193B083C6
:101AE0000895DC01CB01FC01F999FECF06C0F2BDDF
:101AF000E1BDF89A319600B40D9241505040B8F7CC
:101B00000895F999FECF92BD81BDF89A992780B5C5
:101B10000895DC01CB0102C02D9105D04150504009
:101B2000D8F70895262FF999FECF1FBA92BD81BD2F
:101B300020BD0FB6F894FA9AF99A0FBE019608954F
:041B4000F894FFCF47
:101B4400070408450B0C18041217080511831088A4
:101B5400151310F8C000000000000000FDFFFCFF9A
:101B6400FCFFFCFFFDFFFDFFFFFF00000100020082
:101B740003000400050005004D454C7772206F6B8F
:101B84000D006F6B00777200726400736574656E8C
:101B94007600656E61626C650077726974650073C6
:101BA400617665006F736363616C00750D00640D8D
:101BB40000204F52473A2000202020202046495838
:101BC4003A2000206669785F6F6B0D00FDFFFCFF13
:101BD400FCFFFCFFFDFFFDFFFFFF00000100020012
:081BE4000300040005000500E8
:00000001FF
