:1000000019C033C032C031C030C02FC02EC02DC087
:100010002CC02BC02AC029C028C027C074C025C04E
:1000200024C023C03CC021C020C01FC01EC01DC0B2
:100030001CC01BC011241FBECFEFD4E0DEBFCDBF5C
:1000400011E0A0E0B1E0E8E6F3E002C005900D9217
:10005000A430B107D9F721E0A4E0B1E001C01D92BE
:10006000AC33B207E1F70DD17DC1CACF82E08093F6
:10007000C000E1ECF0E0108286E08093C2001092B4
:10008000C5008FEC8093C40088E98083089580E3E5
:1000900087B984E08AB914B885E08BB908951F92B6
:1000A0000F920FB60F9211242F933F938F939F932C
:1000B000EF93FF9380910B0190910C019C012F5FB6
:1000C0003F4F30930C0120930B012091C600FC019F
:1000D000EC5EFE4F20832C3E59F490930A018093EE
:1000E000090110920C0110920B0181E0809306012E
:1000F000FF91EF919F918F913F912F910F900FBEA4
:100100000F901F9018951F920F920FB60F92112407
:100110002F933F938F939F9380910F0190911001A4
:1001200099233CF08FEF9FEF9093100180930F0184
:1001300004C01092100110920F0180910D01909156
:100140000E019C012F5F3F4F30930E0120930D0154
:100150008097CCF18091070190910801892B39F4A7
:1001600081E090E0909308018093070104C0109211
:1001700008011092070180910001909101019923DB
:100180007CF00196843091052CF4909301018093CA
:10019000000106C08FEF9FEF909301018093000153
:1001A000809102019091030199234CF0809102010A
:1001B00090910301019690930301809302011092A4
:1001C0000E0110920D019F918F913F912F910F90F1
:1001D0000FBE0F901F90189582E084BD95E095BDED
:1001E0009FEF97BD80936E000895449A4AE14A9527
:1001F000F1F700C0459A9AE19A95F1F700C044984A
:100200004AE14A95F1F700C045989AE19A95F1F7CD
:1002100000C020E030E090E0AC01022E02C0559515
:1002200047950A94E2F740FF02C0449A01C04498FF
:100230004AE14A95F1F700C0459A4AE14A95F1F73B
:1002400000C045984AE14A95F1F700C02F5F3F4F43
:100250002830310509F78AE18A95F1F700C0459AFF
:100260009AE19A95F1F700C0449A4AE14A95F1F76C
:1002700000C0089583B18170089583B1869581701F
:10028000089505DFF3DEA8DF28E288E190E00FB6ED
:10029000F894A895809360000FBE20936000E0E67C
:1002A000F0E08081806480837894449A459A289A0B
:1002B000299A10920101109200012FEF80E792E03D
:1002C000215080409040E1F700C00000CFEFDFEF09
:1002D000A89580910601813041F51092030110929A
:1002E0000201A895C7DF811108C0C7DF811105C0D1
:1002F000D0930301C09302010AC080910201909142
:100300000301029774F3D0930301C0930201E091BB
:100310000901F0910A01ED5EFE4F808166DF1092C7
:10032000060110920A0110920901A4DF182FA5DF1F
:10033000812B8093050190910401891749F0813048
:1003400011F45A9801C05A9A8091050180930401D2
:100350008091110190911201019690931201809366
:080360001101B6CFF894FFCFA4
:04036800FFFFFFFF95
:00000001FF
