:1000000019C033C032C031C030C02FC02EC02DC087
:100010002CC02BC02AC029C028C027C074C025C04E
:1000200024C023C03CC021C020C01FC01EC01DC0B2
:100030001CC01BC011241FBECFEFD4E0DEBFCDBF5C
:1000400011E0A0E0B1E0E6E9F3E002C005900D9216
:10005000A430B107D9F721E0A4E0B1E001C01D92BE
:10006000AA33B207E1F726D194C1CACF82E08093C8
:10007000C000E1ECF0E0108286E08093C2001092B4
:10008000C5008FEC8093C40088E98083089580E3E5
:1000900087B984E08AB914B881E08BB908951F92BA
:1000A0000F920FB60F9211242F933F938F939F932C
:1000B000EF93FF938091090190910A019C012F5FBA
:1000C0003F4F30930A01209309012091C600FC01A3
:1000D000EE5EFE4F20832C3E59F4909308018093EE
:1000E000070110920A011092090181E08093040136
:1000F000FF91EF919F918F913F912F910F900FBEA4
:100100000F901F9018951F920F920FB60F92112407
:100110002F933F938F939F9380910D0190910E01A8
:1001200099233CF08FEF9FEF90930E0180930D0188
:1001300004C010920E0110920D0180910B0190915C
:100140000C019C012F5F3F4F30930C0120930B015A
:100150008097CCF18091050190910601892B39F4AB
:1001600081E090E0909306018093050104C0109215
:1001700006011092050180910001909101019923DF
:100180007CF00196843091052CF4909301018093CA
:10019000000106C08FEF9FEF909301018093000153
:1001A000809102019091030199234CF0809102010A
:1001B00090910301019690930301809302011092A4
:1001C0000C0110920B019F918F913F912F910F90F5
:1001D0000FBE0F901F90189582E084BD95E095BDED
:1001E0009FEF97BD80936E000895CF93C82F4FDF88
:1001F000449A8FEC97E00197F1F700C00000459A10
:10020000EFECF7E03197F1F700C0000044988FEC75
:1002100097E00197F1F700C000004598EFECF7E098
:100220003197F1F700C0000020E030E08C2F90E023
:10023000AC01022E02C0559547950A94E2F740FFA3
:1002400002C0449A01C04498EFECF7E03197F1F70F
:1002500000C00000459AEFECF7E03197F1F700C0DD
:1002600000004598EFECF7E03197F1F700C000008F
:100270002F5F3F4F28303105D9F68FEC97E001977B
:10028000F1F700C00000459AEFECF7E03197F1F785
:1002900000C00000449A8FEC97E00197F1F700C08E
:1002A0000000CF91089583B18170089583B1869540
:1002B00081700895ECDEDADE8FDF28E288E190E0DD
:1002C0000FB6F894A895809360000FBE209360004D
:1002D000E0E6F0E08081806480837894449A459AD7
:1002E000289A299A10920101109200012FEF80E7BD
:1002F00092E0215080409040E1F700C0000000E013
:10030000CFEFDFEFA89580910401813059F510926D
:10031000030110920201C7DF811108C0C7DF8111FC
:1003200005C0D0930301C09302010AC0809102016D
:100330009091030104975CF3D0930301C0930201F1
:100340001092010110920001E0910701F091080163
:10035000EF5EFE4F808149DF109204011092080188
:1003600010920701A0DF182FA1DF812B801739F031
:10037000813019F45A9A082F02C05A98082F809198
:100380000F019091100101969093100180930F013D
:06039000B9CFF894FFCF85
:04039600FFFFFFFF67
:00000001FF
