:1000000019C08EC083C031C030C02FC02EC02DC0DB
:100010002CC02BC02AC029C028C027C08BC025C037
:1000200024C023C039C021C020C01FC01EC01DC0B5
:100030001CC01BC011241FBECFEFD4E0DEBFCDBF5C
:1000400011E0A0E0B1E0E4E2F3E002C005900D921F
:10005000A430B107D9F721E0A4E0B1E001C01D92BE
:10006000A933B207E1F715D15BC1CACF82E0809313
:10007000C000E1ECF0E0108286E08093C2001092B4
:10008000C50087E68093C40088E98083089580E3F3
:1000900087B91AB814B808951F920F920FB60F922D
:1000A00011242F933F934F938F939F93EF93FF933D
:1000B0002091080130910901C9010196909309012D
:1000C000809308014091C600F901EF5EFE4F408326
:1000D000FC01EF5EFE4F20812D3061F4909307010B
:1000E00080930601109203011092020110920901FF
:1000F00010920801FF91EF919F918F914F913F9145
:100100002F910F900FBE0F901F9018951F920F9276
:100110000FB60F9211240F900FBE0F901F901895DD
:100120001F920F920FB60F9211240F900FBE0F90D7
:100130001F9018951F920F920FB60F9211242F93B4
:100140003F938F939F9380910C0190910D01992380
:100150003CF08FEF9FEF90930D0180930C0104C052
:1001600010920D0110920C0180910A0190910B01E7
:100170009C012F5F3F4F30930B0120930A01809722
:1001800054F18091040190910501892B39F481E0AB
:1001900090E0909305018093040104C01092050142
:1001A00010920401809100019091010199237CF04B
:1001B0000196843091052CF4909301018093000105
:1001C00006C08FEF9FEF9093010180930001109282
:1001D0000B0110920A019F918F913F912F910F90E7
:1001E0000FBE0F901F90189582E084BD95E095BDDD
:1001F0009FEF97BD80936E000895449A4AE14A9517
:10020000F1F700C0459A9AE19A95F1F700C0449839
:100210004AE14A95F1F700C045989AE19A95F1F7BD
:1002200000C020E030E090E0AC01022E02C0559505
:1002300047950A94E2F740FF02C0449A01C04498EF
:100240004AE14A95F1F700C0459A4AE14A95F1F72B
:1002500000C045984AE14A95F1F700C02F5F3F4F33
:100260002830310509F78AE18A95F1F700C0459AEF
:100270009AE19A95F1F700C0449A4AE14A95F1F75C
:1002800000C0089583B18170089583B1869581700F
:100290000895FDDEEBDEA8DF7894449A459A10922B
:1002A0000101109200012FEF84E39CE02150804077
:1002B0009040E1F700C00000C0E0E4DF81111EC003
:1002C000E4DF81111BC010920101109200012FEF99
:1002D00084E39CE0215080409040E1F700C00000A2
:1002E000D1E0DC0F8C2F89DF2FEF84E39CE02150DD
:1002F00080409040E1F700C00000CD2F2091020126
:100300003091030112161306C4F620910E013091AC
:100310000F012F5F3F4F30930F0120930E01CDCF80
:04032000F894FFCF7F
:04032400FFFFFFFFD9
:00000001FF
