:1000000019C033C032C031C030C02FC02EC02DC087
:100010002CC02BC02AC029C028C027C07AC025C048
:1000200024C023C03CC021C020C01FC01EC01DC0B2
:100030001CC01BC011241FBECFEFD4E0DEBFCDBF5C
:1000400011E0A0E0B1E0E6E8F3E002C005900D9217
:10005000A430B107D9F721E0A4E0B1E001C01D92BE
:10006000AD33B207E1F713D18CC1CACF82E08093E0
:10007000C000E1ECF0E0108286E08093C2001092B4
:10008000C5008FEC8093C40088E98083089580E3E5
:1000900087B984E08AB914B885E08BB908951F92B6
:1000A0000F920FB60F9211242F933F938F939F932C
:1000B000EF93FF9380910C0190910D019C012F5FB4
:1000C0003F4F30930D0120930C012091C600FC019D
:1000D000EB5EFE4F20832C3E61F490930B018093E6
:1000E0000A0110920D0110920C0181E0809307012A
:1000F00005C02F3E19F481E080930601FF91EF9136
:100100009F918F913F912F910F900FBE0F901F9055
:1001100018951F920F920FB60F9211242F933F93B1
:100120008F939F93809110019091110199233CF03E
:100130008FEF9FEF909311018093100104C01092F4
:1001400011011092100180910E0190910F019C01FC
:100150002F5F3F4F30930F0120930E018097CCF11A
:100160008091080190910901892B39F481E090E098
:10017000909309018093080104C010920901109224
:100180000801809100019091010199237CF0019672
:10019000843091052CF4909301018093000106C0F6
:1001A0008FEF9FEF909301018093000180910201F6
:1001B0009091030199234CF08091020190910301E9
:1001C0000196909303018093020110920F01109207
:1001D0000E019F918F913F912F910F900FBE0F9025
:1001E0001F90189582E084BD95E095BD9FEF97BD67
:1001F00080936E000895449A4AE14A95F1F700C051
:10020000459A9AE19A95F1F700C044984AE14A95D7
:10021000F1F700C045989AE19A95F1F700C020E007
:1002200030E090E0AC01022E02C0559547950A944B
:10023000E2F740FF02C0449A01C044984AE14A955F
:10024000F1F700C0459A4AE14A95F1F700C0459898
:100250004AE14A95F1F700C02F5F3F4F2830310542
:1002600009F78AE18A95F1F700C0459A9AE19A95D3
:10027000F1F700C0449A4AE14A95F1F700C00895A9
:1002800083B18170089583B1869581700895FFDEF2
:10029000EDDEA8DF28E288E190E00FB6F894A8959B
:1002A000809360000FBE20936000E0E6F0E0808164
:1002B000806480837894449A459A289A299A109267
:1002C0000101109200012FEF80E792E02150804061
:1002D0009040E1F700C00000CFEFDFEFA8958091DC
:1002E0000701813049F51092030110920201A8958F
:1002F000C7DF811108C0C7DF811105C0D09303019A
:10030000C09302010AC080910201909103010297FB
:1003100074F3D0930301C0930201E0910A01F091BC
:100320000B01EC5EFE4F808166DF10920701109298
:100330000B0110920A0108C080910601813021F45E
:1003400080E059DF109206019BDF182F9CDF812B84
:100350008093050190910401891749F0813011F4CF
:100360005A9801C05A9A80910501809304018091A6
:100370001201909113010196909313018093120141
:06038000ADCFF894FFCFA1
:04038600FFFFFFFF77
:00000001FF
