:1000000019C08FC642C631C030C02FC02EC02DC00F
:100010002CC02BC02AC029C028C027C026C025C09C
:1000200024C023C009C621C020C01FC01EC01DC0DF
:100030001CC01BC011241FBECFEFD4E0DEBFCDBF5C
:1000400011E0A0E0B1E0EAECFBE102C005900D9206
:10005000A03CB107D9F723E0A0ECB1E001C01D92AC
:10006000A331B207E1F741DCAECDCACFCF93C82FA1
:1000700081E090E0DADC8C2F8068AEDCB6DCC82F43
:1000800081E090E0D6DC8C2FCF9108951F93CF9321
:10009000DF931F92CDB7DEB7182F81E090E0698320
:1000A000C4DC812F99DC6981862F96DC81E090E0A9
:1000B0000F90DF91CF911F91BCCC1092C50110928F
:1000C000C4011092C3011092C2017DDC87B1837F0D
:1000D00087B980916C00846080936C0080916C0083
:1000E000886080936C0081E090E09FDC81E090E08C
:1000F000A0DC81E090E099DC81E090E09ADC81E096
:1001000090E032D181E090E090DC97DC892BE9F738
:1001100080E362DC92DC892BE9F781E090E089DC06
:1001200081E090E021D160E18DE0B0DF66E68EE015
:10013000ADDF67E08FE0AACFCF93C82F81E090E0DA
:1001400074DC7BDC892BE9F78C2F46DCC82F81E03F
:1001500090E06FDC8C2FCF9108950F931F93CF9376
:10016000DF9300D0CDB7DEB78C0181E090E06983EA
:100170007A835BDC8FE730DC69817A81C80137DC08
:1001800081E090E00F900F90DF91CF911F910F9140
:1001900050CC0F931F93CF93DF9300D0CDB7DEB732
:1001A0008C0181E090E069837A833FDC8FEF14DC7F
:1001B00069817A81C8012ADC81E090E00F900F907C
:1001C000DF91CF911F910F9134CC806C4FCF8DE395
:1001D000B3DF82958770863021F0873021F48BE37E
:1001E00003C08AE301C086E3A7DF8DE3A5DF829524
:1001F0008770D9F70895EBDF83E39EDF8DE39CDF03
:1002000082958770D9F70895CF93DF93C1E0D1E04D
:10021000FE0131976881808139DF229681E0C53106
:10022000D807B1F7DF91CF910895CF93DF931F9255
:10023000CDB7DEB78983E8DF8981813011F46CE0C6
:1002400001C064E087E00F90DF91CF911FCFCF9383
:10025000DF9381E090E0E9DB8EE7BEDBC4E1D1E033
:100260008991BADB81E0CC31D807D1F781E090E009
:10027000DF91CF91DECB8AE090E076D081E0809371
:10028000C60108951092B9008CE08093B8000895DB
:10029000CF93C5E68091BC0087FD05C08AEF90E052
:1002A00059D0C150B9F7CF9108958093BB0084E82D
:1002B0008093BC00EDDF8091B900887F883209F01F
:1002C000DACF0895CF93C82F84EA8093BC00E0DF93
:1002D0009091B900987F983019F0903109F0CBDFF8
:1002E000C093BB0084E88093BC00D2DF8091B9004A
:1002F000887F883121F0803411F0CF91BCCFCF912D
:10030000089584E98093BC008091BC0084FFFCCFF9
:1003100008951F93CF93DF931F92CDB7DEB7182FA9
:10032000F8941092C60184E66983CCDF812F829510
:10033000807FBBDF6981862FB8DFE3DF789481E0BF
:100340009091C601913009F480E00F90DF91CF9138
:100350001F91089540E0242F30E02817390718F442
:1003600000004F5FF8CF08950F931F93CF93DF9353
:100370008C01C0E0D0E0C017D10771F08AEF90E0A7
:10038000E9DF8AEF90E0E6DF8AEF90E0E3DF82E3E7
:1003900090E0E0DF2196EFCFDF91CF911F910F9199
:1003A00008950F931F93CF93DF938C01C0E0D0E0AB
:1003B000C017D10729F088EE93E0D6DF2196F8CF59
:1003C000DF91CF911F910F9108959091C00095FFFB
:1003D000FCCF8093C60008950F931F93CF93DF93B4
:1003E000EC0100E010E08881F0DF89918D3039F078
:1003F000882329F00F5F1F4F02331105A1F7DF910A
:10040000CF911F910F91089590ED980F9A3070F051
:100410009FEB980F963010F4875308959FE9980F3B
:10042000963010F4875508958FEF0895892F089519
:100430001F93CF93DF93EC018881E6DF182F89812A
:10044000E3DF90E1199F90011124822BDF91CF917E
:100450001F910895FC01808180538A3008F08FEF4E
:10046000880F282F220F220F280F918190539A3046
:1004700008F09FEF892F820F90E008958F708A30E7
:1004800010F4805D0895895A08951F93CF93DF93E8
:10049000182FEB0182958F70F1DF8883812F8F7089
:1004A000EDDF8983DF91CF911F910895F999FECFF8
:1004B0006BCBF999FECF58CB0F931F93CF93DF935C
:1004C000082FEB0110E0101741F0289ACE014CDF05
:1004D0002898CE0149DF1F5FF6CFDF91CF911F91A2
:1004E0000F91089582E08093C000E1ECF0E010826B
:1004F00086E08093C2001092C50083E38093C4001D
:1005000088E980830895E1E6F0E080E8808381E077
:10051000808317B81AB89DE094B993E498B997EF1F
:100520009BB985B9E9E6F0E080818E7F8083808188
:100530008D7F808380818B7F80838081877F808394
:10054000089594E890937A00606C8F70682B6093A4
:100550007C0084E090917A00906490937A0090916E
:100560007A0094FFFCCF90917A00906190937A008A
:10057000815081F780917A00806480937A00809125
:100580007A0084FFFCCF80917A00806180937A00AA
:10059000209178008091790034E0839FC00111247C
:1005A00034E030937A002295269526952370822B8D
:1005B00008950DDE42986FEB8AE268DD60E882E024
:1005C00065CD6FE382E062DD6FE78AE25FCDCF93B6
:1005D000DF934298EEDFCEE7D0E0888184608883A5
:1005E00060E282E0AEDF9093430280934202888112
:1005F0008B7F8883E6DF429A80914202909143028A
:10060000DF91CF910895CF92DF92EF92FF920F93F7
:100610001F93CF93DF9300D000D000D0CDB7DEB7CB
:100620008C01209138013091390140913A012983A0
:100630003A834B8395E2C92E90E0D92EE12CF12C20
:1006400044E050E0B60187EE91E033DF2091E7010E
:100650003091E8014091E9012C833D834E8346E0CF
:1006600050E0B801CE0101961FDA892B69F08FEFB7
:10067000E81AF80A84E0C80ED11C84E6E816F104F2
:10068000F9F6EE24EA94FE2CC70126960FB6F894EC
:10069000DEBF0FBECDBFDF91CF911F910F91FF90B5
:1006A000EF90DF90CF900895E9B169B199B189B128
:1006B00046B126B1869586958071969596959072ED
:1006C000892B94E0E99FF0011124E0788E2B94E0CF
:1006D000699FB00111246074862B94E0499FA001AA
:1006E00011244870842B94E0299F900111242470D8
:1006F000822B0895ECE1F1E040E050E0DA01B5959D
:10070000A795A80FB91F6281695F6F702081318141
:10071000295F3F4F74E0220F331F7A95E1F7622B78
:100720006C934E5F5F4F34964E30510539F7089504
:10073000CF93DF93ECE1F1E0DC01EC012991CE01F4
:1007400022952F7030E027503109318320832C917E
:100750002F7030E027503109338322833496D1E063
:10076000E833FD0749F7F999FECF4CE150E069E025
:1007700070E08CE191E0DF91CF910ECACF93DF93CF
:10078000EC0186E0E0EFF1E0DE01119601900D92C0
:100790008A95E1F72FEF3FEF4FEF2F833887498797
:1007A0008091F7018A879091F9019F3B10F4816055
:1007B0008A878091FB01843049F09091CC018A8531
:1007C000913011F4826001C08D7F8A878091C901C8
:1007D0008B878091F9018C8781E09091CA019111FA
:1007E00001C080E08E871D8690ED9F878823C9F029
:1007F00081E2888380914202909143029A8B8B8B95
:100800008091A8028C8B8091A9028D8B8091AD0282
:100810008E8B8091AE028F8BCE014A96DF91CF9165
:1008200069CF82E18883DF91CF9108951F93CF93A1
:10083000DF93EC01162F82E0860F888361E070E081
:10084000CE018BDC612F70E06E5F7F4FCE01DF91B8
:10085000CF911F9182CC0F931F93CF93DF931F9261
:10086000CDB7DEB78C0161E070E0CE01019691DC7E
:10087000698170E0C8018DDC8091EF0161E070E07A
:10088000882341F08EE192E084DC61E070E08FE14A
:1008900092E007C088EC91E07CDC61E070E087ECDE
:1008A00091E077DC898182500F90DF91CF911F9189
:1008B0000F910895F9DE90E080959095E6E095958A
:1008C0008795EA95E1F783700895CF93DF93CDB7CD
:1008D000DEB72A970FB6F894DEBF0FBECDBFEADFB2
:1008E00090E098878F832F8138854FE3429FC00126
:1008F000439F900D1124845097499A87898780914E
:10090000A9022091A802803829F489859A85821B42
:10091000910904C089859A85820F911D9A878987DC
:1009200056DE9A8389838091AE022091AD02803891
:1009300029F489819A81821B910904C089819A8155
:10094000820F911D9A83898329813A8189E393E0FB
:10095000821B930B9E838D838D819E816CE070E062
:100960008BD88DE090E09C01261B370B3C832B83BA
:100970002D813E8137FF03C09C838B8307C08D810F
:100980009E81883A910510F01C821B828B819C818C
:1009900080933C0289859A85EB81FC81EE0FFF1FD5
:1009A000E45EFE4F20813181820F931F9A878987F1
:1009B00060E18DE06BDB89859A85692F8EE066DBCF
:1009C00069857A858FE062DB2A960FB6F894DEBFE0
:1009D0000FBECDBFDF91CF910895289A81E090E0BE
:1009E000C3DC60E287E0ADDD9695879596958795A7
:1009F0008093F9012898089581E01F9B80E0089575
:100A00008AE090E0B1DC1092FF01199904C081E006
:100A10008093CD0102C01092CD018091CF018093CF
:100A2000CE01EADF8093CF018091CC018093CB018E
:100A300060E286E086DD8138910518F01092CC01E5
:100A400003C081E08093CC01C8DF8091CD0181306B
:100A500049F48091FB01853029F08091FF01886085
:100A60008093FF019091CE018091CF01981729F0DA
:100A70008091FF0184608093FF019091CB01809170
:100A8000CC01981729F08091FF0182608093FF01CB
:100A90008091F9018F3B28F48091FF018160809360
:100AA000FF010895CF931092FF01199B02C0C0E08F
:100AB00001C0C8E0A1DF8111C46060E286E041DDD1
:100AC0008093CC0187FFC26088DF8091F9018F3B62
:100AD00008F4C1608C2FCF9108953299FECF08950C
:100AE000F4DE87E1C3DA682F6C7F626087E1CEDADB
:100AF00082E1BCDA682F677F82E1C8DA63E381E1D3
:100B0000C5DA82E1B3DA682F6F78606382E1BEDA1A
:100B100060E182E2BBDA60E382E0B8DA58DB6BDBEB
:100B20008BE30ADB6EE082E0B1DAD7DF85E304CB4A
:100B30000F931F93CF93DF93EC01162F042F81E0C7
:100B400074DBC3DE6EE082E0A1DA41DB8AE3F4DA33
:100B500052DB84E3F1DA85E090E006DC329914C0E0
:100B600080E063DBB2DE33DB46DB612FCE015EDE8D
:100B700060E087E18BDA69E082E088DA66E082E0B3
:100B800085DA85E3D9DA08C022DB83EC90E0ECDB80
:100B90000111E6CF80E005C0329BFECF3299FECF37
:100BA00081E0DF91CF911F910F9108951F93CF9313
:100BB000DF93EC0181E039DB88DE66E082E066DA13
:100BC00006DB8AE3B9DA17DB84E3B6DA13E332999A
:100BD00006C081E090E0C8DB1150C9F70BC0329924
:100BE000FECF83E3F2DA87FF05C0CE01DF91CF911C
:100BF0001F9131CE80E0DF91CF911F910895282F72
:100C0000DB01FC018E2F821B841728F431919D910A
:100C10003917C1F301C080E00895E89860E08EE0E4
:100C200078DB811108C060E08EE073DB811103C0C6
:100C300060E08EE06ECB08951F920F920FB60F9278
:100C400011248F939F93EF93FF938091C60080931D
:100C5000D501E091D00191E09E0F9093D001F0E09A
:100C6000E155FD4F80838D3039F49093D40187E0B6
:100C70008093FB011092D001FF91EF919F918F9192
:100C80000F900FBE0F901F9018951F920F920FB6E6
:100C90000F9211242F933F934F935F936F937F9302
:100CA0008F939F93AF93BF93EF93FF93D7D680918A
:100CB000FB01813009F4B1DFF7DC809580930202FB
:100CC0009FDE8091FF01882359F09091CF0191110F
:100CD00003C0982F9B7F02C0982F94609093D101FE
:100CE0009091FB01913039F0953051F4867041F0CC
:100CF00081E08093D20182E08093FB011092FC019D
:100D0000FF91EF91BF91AF919F918F917F916F91E3
:100D10005F914F913F912F910F900FBE0F901F90B9
:100D200018951F920F920FB60F9211242F933F9395
:100D30004F935F936F937F938F939F93AF93BF93E3
:100D4000EF93FF93E8988AD681E08093D201809157
:100D5000FB01833019F482E08093FB01FF91EF9156
:100D6000BF91AF919F918F917F916F915F914F91C3
:100D70003F912F910F900FBE0F901F90189580916B
:100D8000380190913901A0913A018093F00190933C
:100D9000F101A093F20143E050E067EB71E083EFD3
:100DA00091E087DB1092FC017FDC8095809302024A
:100DB0008695869583708093EF01089575DC90E0A9
:100DC0008095909524E0959587952A95E1F7837015
:100DD0000895CF93DF9300D0CDB7DEB7883028F0E9
:100DE00064EF71E084E168DB55C0843008F052C0E4
:100DF00090E0FC01EE0FFF1FE80FF91FEC54FE4FCF
:100E000080818093540181818093560182818093F7
:100E100058011A82198289819A8107970CF07AC049
:100E2000A981BA81E981FA81AA0FBB1FA35BBE4FDA
:100E3000EE0FFF1FE35BFE4F11966C91808169DA24
:100E4000811122C0A981BA81E981FA81AA0FBB1F51
:100E5000A35BBE4FEE0FFF1FE35BFE4F11966C913D
:100E6000808157DA811110C0A981BA81E981FA81A4
:100E7000AA0FBB1FA35BBE4FEE0FFF1FE35BFE4F2E
:100E800011966C91808145DA89819A8101969A83C5
:100E90008983C1CF1A82198289819A810997D4F5F1
:100EA000A981BA81E981FA81AA0FBB1FA55CBE4F57
:100EB000EE0FFF1FE55CFE4F11966C91808129DAE1
:100EC000811122C0A981BA81E981FA81AA0FBB1FD1
:100ED000A55CBE4FEE0FFF1FE55CFE4F11966C91B7
:100EE000808117DA811110C0A981BA81E981FA8164
:100EF000AA0FBB1FA55CBE4FEE0FFF1FE55CFE4FA8
:100F000011966C91808105DA89819A8101969A8384
:100F10008983C2CF0F900F90DF91CF910895C8E1E0
:100F200056D983E090E03DDA80E07FD962E288E044
:100F3000ADD8CBDC4CD95FD985E3FED80FB6F89499
:100F4000C0936000109260000FBE83E090E029DA49
:100F5000E7CFBF92CF92DF92EF92FF920F931F9352
:100F6000CF93DF93C0E0D0E0AFE0BA2EA89561E068
:100F70008EE092E01BDE182FE82EF12CE114F10434
:100F800009F4D9C0CE01880F991F880F991F885D79
:100F90009F4F8CDA80931B022091F3013091F40172
:100FA0004091F501209315023093160240931702E9
:100FB0009091CA01911165C08FE092E024DBEC01B1
:100FC00097FDB9C040E062E18EE092E0B1DD113200
:100FD00008F0B6C087E78093EB0282E78093EC02CB
:100FE000C0E2C093ED0285E68093EE028DE6809329
:100FF000EF0287E68093F002C093F10262EF72E0A5
:101000008091120242DA64EF72E0809113023DDABD
:1010100066EF72E08091140238DAC093F80269EF4B
:1010200072E08091180231DAC093FB026CEF72E03B
:10103000809119022ADAC093FE026FEF72E080916C
:101040001A0223DAC093010362E073E08091C801C1
:101050001CDAC093040365E073E080911E0215DA88
:101060008DE080930703109208038BEE92E0DF91EE
:10107000CF911F910F91FF90EF90DF90CF90BF9095
:10108000ABC99330C9F490931C02E8EDF1E0A0E203
:10109000B2E08B2D01900D928A95E1F740E061E27C
:1010A0008EE092E045DD813009F045C08093CA01B1
:1010B0008BE591E091D93FC087E787D982E785D951
:1010C00080E283D984E681D985E77FD98DE67DD911
:1010D00080E77BD980E279D9EEE0CE2EE2E0DE2E09
:1010E00000E010E06BEE72E0F60181916F01CDD966
:1010F0008091EB026AD98091EC0267D90F5F1F4F94
:101100000E151F057CF36BEE72E08091C801BDD90E
:101110008091EB025AD98091EC0257D96BEE72E0C4
:101120008091C701B2D98091EB024FD98091EC0236
:101130004CD98DE04AD98091FB01873009F016CF58
:10114000DF91CF911F910F91FF90EF90DF90CF90A3
:10115000BF90089508E4E02E02E0F02E80E6382EDD
:1011600093E0C92E28E1B22EAA24A39432E7932E4D
:1011700044E6842E50E2D52E65E6762E7EE6672E76
:10118000E6E75E2EFDE04F2E8DEE91E0E2DE8091EF
:10119000FB018730C9F7D701E32D1D92EA95E9F7E6
:1011A00062E671E08FEA92E07BD49093EC01809349
:1011B000EB0108E412E0C0E0D0E06091EB01709137
:1011C000EC016115710579F0C80186D462E671E021
:1011D00080E090E065D49093EC018093EB01219640
:1011E000005F1F4FEACFCD2B09F470C164E671E0B8
:1011F00088E492E078D4892B09F442C06DE671E06E
:1012000088E592E070D4892B09F460C188E692E009
:1012100021D9EC018436910508F058C188E792E0A5
:1012200007D98093E7018AE792E002D98093E80129
:101230008CE792E0FDD88093E90188E892E0F8D845
:101240008093EA01CC0FDD1FCC0FDD1FCB5DDF4F9C
:1012500044E050E0BE018EE392E02BD944E050E040
:101260006EE372E087EE91E01FD4892B09F4F8C099
:10127000F999FECF44E050E0BE0187EE91E0EFC067
:1012800067E671E088E492E02ED4892B09F446C029
:101290006DE671E088E592E026D4892B09F416C149
:1012A00088E692E0D7D88436910508F00FC1BC01DA
:1012B000660F771F660F771F6B5D7F4F44E050E02E
:1012C0008EE392E0F6D89092EB028092EC02D092FC
:1012D000ED027092EE026092EF025092F002D09214
:1012E000F10262EF72E080913E02CFD864EF72E0CB
:1012F00080913F02CAD866EF72E080914002C5D863
:10130000D092F80269EF72E080914102BED840921B
:10131000FB021092FC028BEE92E0D7C06AE671E00D
:1013200088E492E0E0D3892B09F4A0C061E771E082
:1013300088E592E0D8D3892B51F00FB6F894B0929B
:101340006000109260000FBEA092CA0189C068E7D9
:1013500071E088E592E0C7D3892B09F44EC088E696
:1013600092E066D88093D8018AE692E061D88093B3
:10137000D9018CE692E05CD88093DA0188E792E0AC
:1013800057D88093DB0188E892E052D88093DC0143
:101390008AE892E04DD88093DD018CE892E048D84D
:1013A0008093DE018EE892E043D88093DF0188E9E4
:1013B00092E03ED88093E0018AE992E039D88093A8
:1013C000E1018CE992E034D88093E2018EE992E069
:1013D0002FD88093E30180EA92E02AD88093E40139
:1013E00082EA92E025D88093E50184EA92E020D851
:1013F0008093E601C092CA0133C06EE771E088E5D0
:1014000092E071D3892B79F188E692E011D880932C
:10141000AA028AE692E00CD88093AB028CE692E0B6
:1014200007D88093AC0288E892E002D88093A802A3
:101430008AE892E0FDD78093A9028CE892E0F8D781
:101440008093AD028EE892E0F3D78093AE02F999D3
:10145000FECF47E050E065EB71E088EA92E09CD374
:101460008EE591E032C01092CA0130C063E871E0AD
:1014700088E492E038D3892B49F1C091660069E68F
:1014800070E088E592E01DD320913602892B31F07F
:101490002F5F209336028AE891E005C02150209307
:1014A00036028DE891E098D780913602C81771F026
:1014B00080936600F999FECF43E050E060E070E071
:1014C00086E392E069D380E991E086D78CE3EFEA86
:1014D000F2E0DF011D928A95E9F786E08093FB0137
:1014E00053CECF93DF93289AC7E0D0E08EE092E00E
:1014F00045D941E0D63008F440E060910E028EE01C
:1015000092E016DB811102C0DF5F1AC08130C1F4A6
:10151000A89560E08EE092E049DB882389F046E000
:101520006FE072E080EF91E06ADB811109C0809189
:101530001B028093C90110920E022898C1E003C0DB
:10154000C150A1F628988C2FDF91CF9108959091EA
:1015500060009F7B9093600098E10FB6F8949093A1
:101560006000109260000FBE611101C032DC2FD606
:1015700089E3E2D566D2E89A83B7816083BF889514
:1015800083B78E7F83BF28E288E190E00FB6F8949E
:10159000A895809360000FBE20936000809160004A
:1015A0008064809360000895109244021092450276
:1015B000109246021092D70110E0A3E0EA2E05E057
:1015C000FF24F394B4E0DB2EA89548D28091FB0170
:1015D000823089F150F4882381F0813009F05FC0B6
:1015E000D092FB011092FC015AC0843069F008F4DB
:1015F0005DC0853009F450C052C01091C90113700C
:101600001C5FF092FB014BC04DDA8A7080618093C1
:10161000F7018DEE91E065DF8130F1F18091FC0101
:101620008F5F8093FC01893010F410E038C0109275
:10163000FB0110E03BC08091FC01811106C080914C
:10164000D1018F7080628093F7018DEE91E049DFC8
:10165000813089F48091D1019091F701892782FF2F
:1016600003C01092FC0122C01092D201A7DB182FF8
:101670000093FB0114C08091FC018F5F8093FC01FB
:10168000E092FB01873088F21092FC011092D201A7
:101690000093FB0111E003C01092FB0107C0809191
:1016A000FB01843019F060E0812F51DF8091FB0154
:1016B000833019F461E0812F4ADFC0E0D0E08091EF
:1016C000D201811181CF8091FB01853009F07CCF5F
:1016D00061E0812F3CDF2196C536D10584F3F0927D
:1016E000D20168E270E08AE0E7D6E9CF70D78EE0F9
:1016F00092E044D840E061E28EE092E019DA813075
:1017000009F052C060E08EE092E050DA282F30E01D
:101710002115310509F448C080933D02213231057D
:1017200009F040C080911C028330E1F580912002D5
:1017300090912102A09122028093AA029093AB0281
:10174000A093AC02209124022093A80220912502AC
:101750002093A902209126022093AD022091270216
:101760002093AE028093F3019093F401A093F501CE
:101770008093120290931302A0931402F999FECF62
:1017800047E050E065EB71E088EA92E005D288E23C
:1017900092E0CED78DEE91E0A3D985E090E001D61E
:1017A00081E0089510920E0280E00895C0EC8091CF
:1017B000CA01813021F468EE73E07ED6F8CF64E68A
:1017C00070E085E079D6C093140141D58FDFEFCF6B
:1017D000CF93DF9300D01F92CDB7DEB747E050E044
:1017E00065EB71E088EA92E064D643E050E060E0A7
:1017F00070E086E392E05DD6E8EAF2E08191815004
:101800008E3FC0F082E0ED3AF807C1F784E28093A2
:10181000A80280E88093A90298E19093AD0280939A
:10182000AE02F999FECF47E050E065EB71E088EA3F
:1018300092E0B2D14CE150E069E070E08CE191E0DF
:1018400038D6ECE1F1E080E0919191509E3F20F09C
:101850008F5F8C31C9F714C0853091F4F999FECFB0
:101860004CE150E069E070E088E991E095D18CE1CD
:10187000E8E9F1E0ACE1B1E001900D928A95E1F781
:1018800043E050E066E070E0CE01019612D6898117
:101890009FEF980F9E3F40F4809338018A81809398
:1018A00039018B8180933A010F900F900F90DF9157
:1018B000CF91089564DA8091EF01811112C06EE139
:1018C00070E082E3F9D55BDA8091EF01833029F48F
:1018D0006AE070E082E3F0D522DB82E090E061D53F
:1018E000F2CF82E090E05DD5E5CF0DD6FBD5CAD42E
:1018F0006FDF45DAE2D388D480EC80931401A7D45B
:1019000083B7817F846083BF64E670E082E0D4D5D2
:101910008091EF01823031F4E99A6ED88093CF0143
:101920008093CE018091EF018D7F81F428E288E1E0
:1019300090E00FB6F894A895809360000FBE2093B6
:101940006000809160008064809360007894809152
:101950003702813029F480913802803D29F413C088
:10196000809166008093360281E08093370280ED9B
:1019700080933802F999FECF43E050E060E070E0D8
:1019800086E392E009D18091EF01811104C080913A
:1019900036028093660062D08091EF01823009F4B4
:1019A0003CD98091EF01811104C086E08093FB0156
:1019B000D1DB813009F47EDF833021F482E0809333
:1019C000CA01F4DEF1DD84B1886284B924982B98D1
:1019D00080E58CBD2A9A08958EBD0DB407FEFDCF1B
:1019E0000DB407FEFDCF8EB5089580E0F5CFFC0164
:1019F000680F791F80E0E617F70739F081918EBDF7
:101A00000DB407FEFDCF8EB5F6CF0895680F791F90
:101A10008617970749F01EBC0DB407FEFDCF2EB503
:101A2000FC012193CF01F4CF0895019709F42A987E
:101A30000895019709F42A9A089583B1847090E07B
:101A400008958CB58F7B8CBD2298239825982A9871
:101A500018B81BB881E08093D3010895B4DF2A98A9
:101A6000229A409A419A429A439A449A459A87EF19
:101A70008BB91092D3010895AA1BBB1B51E107C07B
:101A8000AA1FBB1FA617B70710F0A61BB70B881F0E
:101A9000991F5A95A9F780959095BC01CD0108959D
:101AA00040EC51E03AD00895FB01DC0104C08D9177
:101AB0000190801921F441505040C8F7881B990BC0
:101AC0000895FC018191861721F08823D9F7992781
:101AD00008953197CF010895FB01DC0101900D922B
:101AE0000020E1F70895FB0151915523A9F0BF01B2
:101AF000DC014D9145174111E1F759F4CD010190F9
:101B0000002049F04D9140154111C9F3FB014111ED
:101B1000EFCF81E090E001970895FA01A191B081A3
:101B2000009719F41097E1F0CD01DC01CD010D9083
:101B3000002011F4C00113C0FB012191222319F0F0
:101B40002015D9F7F3CFFB012191201519F41E922E
:101B5000119606C02223C1F70D900020A1F7D001F5
:101B6000FA01A193B0830895DC01CB01FC01F9993E
:101B7000FECF06C0F2BDE1BDF89A319600B40D92D9
:101B800041505040B8F70895F999FECF92BD81BDFC
:101B9000F89A992780B50895DC01CB0102C02D91F8
:101BA00005D041505040D8F70895262FF999FECF1F
:101BB0001FBA92BD81BD20BD0FB6F894FA9AF99A6A
:0A1BC0000FBE01960895F894FFCFC0
:101BCA00070408450B0C180412170805118310881E
:101BDA00151310F8C000000000000000FDFFFCFF14
:101BEA00FCFFFCFFFDFFFDFFFFFF000001000200FC
:101BFA0003000400050005004D454C0E000C000BC7
:101C0A00000A0003000200010000010E600E000C31
:101C1A00100B000200010000000E407772206F6B6B
:101C2A000D002000777200726400736574656E7629
:101C3A0000656E61626C6500777269746500736134
:101C4A007665006F736363616C00750D00640D0047
:101C5A006669785F6F6B0D00FDFFFCFFFCFFFCFF00
:101C6A00FDFFFDFFFFFF000001000200030004006A
:101C7A000500050009595709590009580009550076
:00000001FF
